:020000040800F2
:10000000205300205D020008C72F0008A927000820
:10001000C52F0008590C00084139000800000000F5
:100020000000000000000000000000009D0100082A
:100030007D0C000800000000F901000821330008D1
:1000400077020008770200087702000877020008AC
:10005000770200087702000877020008770200089C
:10006000770200087702000877020008770200088C
:10007000770200087702000877020008770200087C
:10008000770200087702000877020008770200086C
:10009000770200087702000877020008770200085C
:1000A00077020008F13300087702000877020008A1
:1000B000770200087702000877020008770200083C
:1000C000770200087702000877020008770200082C
:1000D0007702000829390008770200087702000833
:1000E000770200087702000877020008770200080C
:1000F00077020008770200087702000877020008FC
:1001000077020008770200087702000877020008EB
:1001100077020008770200087702000877020008DB
:1001200077020008770200087702000877020008CB
:1001300077020008770200087702000877020008BB
:1001400077020008770200087702000877020008AB
:1001500077020008770200087702000835390008A6
:10016000770200087702000877020008770200088B
:1001700077020008770200087702000800000000FC
:100180007702000877020008DFF80CD000F036FC98
:1001900000480047DD5F0008205300202C4B196801
:1001A0000868B0E8F04F80F30988BFF36F8F4FF015
:1001B000000080F3118870470000000008480068C4
:1001C000006880F308884FF0000080F3148862B65E
:1001D00061B6BFF34F8FBFF36F8F00DF00BF00BF6B
:1001E00008ED00E0DFF80C00016841F470010160E7
:1001F000704700BF88ED00E0EFF30980BFF36F8F19
:10020000134B1A681EF0100F08BF20ED108A20E96A
:10021000F04F106009B44FF0500080F31188BFF325
:100220004F8FBFF36F8F07F069FA4FF0000080F334
:10023000118809BC19680868B0E8F04F1EF0100F6B
:1002400008BFB0EC108A80F30988BFF36F8F704746
:10025000D0000020EFF3058070470000064880477B
:1002600006480047FEE7FEE7FEE7FEE7FEE7FEE79B
:10027000FEE7FEE7FEE7FEE7D53300088901000848
:100280002DE9F05F0546002092469B4688460646CB
:10029000814640241BE0284641464746224600F05E
:1002A000AFFA53465A46C01A914110D31146184628
:1002B000224600F096FA2D1A67EB01084F462246B7
:1002C0000120002100F08DFA17EB00094E41201E9D
:1002D000A4F10104DFDC484631462A464346BDE826
:1002E000F09F40EA01039B0703D009E008C9121FF1
:1002F00008C0042AFAD203E011F8013B00F8013BE0
:10030000521EF9D27047D2B201E000F8012B491E0B
:10031000FBD270470022F6E710B513460A460446A2
:100320001946FFF7F0FF204610BD10B5044604E063
:100330000B7800F8013B03B1491C521EF8D220464D
:1003400010BD421C10F8011B0029FBD1801A704718
:1003500010B5002200E0521C835C8C5CA34201D1EA
:10036000002BF8D1D8B2E1B2401A10BD034611F803
:10037000012B00F8012B002AF9D11846704730B53F
:1003800005460020034600E05B1C934205D2EC5C6E
:10039000C85C201A01D1002CF6D130BD2DE9FE4FEA
:1003A000804681EA0300C00F0C46009021F0004116
:1003B00023F00045B8EB0200A94105D24046214692
:1003C00090461C460B46024623F00040104347D09F
:1003D000270DC7F30A00C3F30A510290401A019097
:1003E00040286BDAC3F3130040F4801B0098924658
:1003F00020B10023D2EB030A63EB0B0B01985946A3
:10040000C0F14002504600F0ECF906460D46504659
:100410005946019A00F004FA10EB080061410024EB
:1004200087EA115284EAE7731A4340D0009A62B314
:10043000019A012A4FEA075215DC001B61EB020109
:100440004FF0004202EA0752CDE90042001C41F59C
:10045000801132462B4600F03BFA03B0BDE8F08F26
:1004600040462146F9E7001B61EB0201001C41F503
:10047000801300185B412018A2F5001747EB030119
:1004800040EAD570B6196D4111E06D084FEA3606A5
:1004900045EAC0754FEA0752001B61EB0201001CE0
:1004A00041F5801149084FEA3000001951413246A8
:1004B0002B4603B0BDE8F04F00F0FBB900980122D5
:1004C00040000023D0EB020263EBE073009821466A
:1004D0004FEAE074B8EB000061EB0401E9E783F058
:1004E00000435BE781F0004158E72DE9FE4F81EAC8
:1004F000030404F0004421F0004100944FF0000B8D
:1005000023F0004350EA01045ED052EA03045BD0BA
:10051000C3F30A54C1F30A552C44A4F2F3340194F2
:10052000A0FB0254C1F3130141F48011C3F3130380
:1005300043F4801301FB024400FB034E840A970A34
:1005400044EA815447EA8357A4FB076802958D0A61
:1005500005FB07854FEA932C04FB0C542705029DED
:100560004FEA065847EA1637B5EB08056EEB070C5D
:10057000870E920E47EA811742EA8312A7FB020117
:10058000B6EB0B0164EB00042B0D43EA0C335E1851
:1005900044EB1C50DA465146E7FB0201C5F3130455
:1005A0004FEA0B3343EA14534FEA0432019C43EA07
:1005B0000603A4F10C040294009CCDE900B400F001
:1005C00087F903B0BDE8F08F00200146F9E72DE977
:1005D000F04D81EA030404F0004B21F0004514467D
:1005E0004FF0000A23F0004150EA050220D054EAFF
:1005F00001021DD0C5F30A570246C5F31303C1F328
:100600001300C1F30A5640F4801543F48013A7EB9E
:100610000608101BD64608F2FD3873EB050002D31E
:1006200008F1010801E092185B41B8F1000F03DA0C
:1006300000200146BDE8F08D00204FF480110646F1
:1006400084460EE0171B73EB050705D3121B63EB03
:10065000050306434CEA010C49084FEA30009218A2
:100660005B4150EA0107EDD152EA030012D082EA61
:10067000040083EA0501084305D0101BAB4106D2F4
:100680000122002306E000224FF0004302E06FF059
:10069000010253101AEB06004CEB085110EB0A0054
:1006A00041EB0B01BDE8F04D00F003B90EB5C10FF1
:1006B00080EAE0700844CA07002140F233438DE825
:1006C0000E000A460B4600F003F903B000BD0EB55C
:1006D00040F2334102910021CDE900110A460B4658
:1006E00000F0F6F803B000BD70B5C1F30A5201F096
:1006F00000450024C1F3130140F2FF3341F480119F
:100700009A4201DA002070BD40F233439A42A2F2CD
:10071000334203DC524200F073F800E090402C4377
:10072000F1D0404270BDC1F30A5210B5C1F31301BC
:1007300040F2FF3341F480119A4201DA002010BDEB
:1007400040F233439A42A2F2334203DC524200F0B9
:1007500057F810BD904010BD00F0004230F000404E
:100760000AD0C10D01F56071C0F3160042EA0151D3
:10077000C20840071143704700200146704701F04E
:10078000004330B421F0004150EA010206D00A0DC6
:10079000A2F56072C1F31301002A02DC30BC002014
:1007A0007047440F44EAC104C100E01830BC00EBBC
:1007B000C25000F047B830B50B4601460020202259
:1007C000012409E021FA02F59D4205D303FA02F55E
:1007D000491B04FA02F52844151EA2F10102F1DCBE
:1007E00030BD202A04DB203A00FA02F100207047D5
:1007F0009140C2F1200320FA03F31943904070475F
:10080000202A04DB203A21FA02F00021704721FA65
:1008100002F3D040C2F120029140084319467047CC
:10082000202A06DBCB17203A41FA02F043EAE073B4
:1008300006E041FA02F3D040C2F1200291400843A1
:10084000194670470029A8BF7047401C490008BFDF
:1008500020F00100704710B4B0FA80FC00FA0CF0F0
:1008600050EA010404BF10BC704749B1CCF1200428
:1008700021FA04F411FA0CF118BF012121430843B5
:10088000A3EB0C01CB1D4FEA00614FEA102042BFE1
:10089000002010BC704700EBC35010440029A4BFD7
:1008A00010BC7047401C490008BF20F0010010BC7C
:1008B000704710B5141E73F1000408DA401C41F1B2
:1008C000000192185B411A4301D120F0010010BDD4
:1008D0002DE9F04D92469B4611B1B1FA81F202E04A
:1008E000B0FA80F220329046FFF77BFF04460F46B5
:1008F00040EA0A0041EA0B0153465A46084313D026
:10090000114653EA010019D0C8F140025046FFF7E2
:1009100077FF05460E46504659464246FFF761FFAF
:10092000084305D0012004E020463946BDE8F08D9B
:100930000020054346EAE0762C4337430A986305D6
:10094000E40AA0EB08000022FD0A44EA47540A30FA
:1009500002D500200146E9E7010510196941DDE9EA
:10096000084500196941BDE8F04DA2E770B521F0D6
:10097000004303430CD0C1F30A550024D5EB040512
:1009800064EB0403D617AD1AB34102DB0020014625
:1009900070BD201841EB025170BDC1F30A52C1F382
:1009A000130140F2FF3341F480119A4202DA002031
:1009B0000146704740F233439A42A2F2334202DCCE
:1009C0005242FFF71DBFFFF70CBF000030B5041EF9
:1009D00071F1000404DB4FF00044404264EB01017C
:1009E000141E73F1000405DB1C464FF00043524215
:1009F00063EB0403994208BF904230BD064C074D9B
:100A000006E0E06840F0010394E8070098471034DE
:100A1000AC42F6D3FFF7BCFBF88400081885000849
:100A20002DE9F04D00231A461B1A8A4103DB0020F2
:100A30000146BDE8F08DC1F30A52C1F3130141F440
:100A400080154FF0000BD10702D100186D41521EE6
:100A50000027044640F2FF11384601EB620A3E4689
:100A60008046024600204FF48011FFF7C9FEC219EC
:100A70007141BB1846EB0100B4EB030C75EB000CA5
:100A800004D3E41A65EB000517460E46241908F155
:100A900001006D4180463428E3DDF91946EB06007C
:100AA000091BA84103D24FF0FF32134601E0002298
:100AB00013461BEB070046EB0A51BDE8F04DFFF76C
:100AC000F8BE000030B5041E71F1000404DB4FF0E5
:100AD0000044404264EB0101141E73F1000405DB85
:100AE0001C464FF00043524263EB04038B4208BFA5
:100AF000824230BD30B58C1810F8012B12F00F0374
:100B000001D110F8013B120906D110F8012B03E0C6
:100B100010F8015B01F8015B5B1EF9D101E001F8FF
:100B2000013B521EFBD1A142E6D3002030BD0000A4
:100B3000464910B54A6822F440324A604A68436820
:100B40001A434A6001684A6822F480724A60016868
:100B50004A68036942EA03224A6001684A6822F04F
:100B600040724A6001684A6883681A434A600168B3
:100B70008A6822F400628A6001688A68C3681A433E
:100B80008A60816A6FF07062D14201688A6822F0DF
:100B900070628A6001688A680CD0836A1A438A602E
:100BA00001688A6822F040528A6001688A68C36AD4
:100BB0001A4301E022F040528A6001688A6822F0FC
:100BC00002028A6001688A68037E42EA43028A6000
:100BD00090F82010002901684A680FD042F40062A2
:100BE0004A6001684A6822F460424A6001684A68C3
:100BF000174C436A04EB43331A4301E022F40062CA
:100C00004A600168CA6A22F47002CA620168CA6A4C
:100C1000838B104C04EB03531A43CA6201688A6841
:100C200022F400728A6001688A6890F8303042EAE3
:100C300043228A6001688A6822F480628A600168BF
:100C40008A68406942EA8020886010BD0023014024
:100C500000E0FFFF0000F0FFFEE7000010B500F02D
:100C60000FF801222021044800F034FBBDE81040B9
:100C70004FF4FA7000F034BA0000024070470000F0
:100C80000B4800B5016887B041F0010101600068C0
:100C9000694600F00100059020200090012001909D
:100CA00003200390034800F02DFA07B000BD0000B8
:100CB000303802400000024078B50024009490F8DB
:100CC0003C20012A19D0012280F83C200A68072321
:100CD0000568092A13D9EE680A3A02EB42029340EA
:100CE0009E43EE600B788A680A3B03EB43039A400D
:100CF0000368DD682A43DA6010E0022078BD2E69BF
:100D000002EB420293409E432E610B788A6803EB0C
:100D100043039A4003681D692A431A614A681F23E6
:100D2000072A13D205686E6B521E02EB82029340B3
:100D30009E436E630B790A885B1E92B203EB8303BA
:100D40009A4003685D6B2A435A6327E005680D2AC1
:100D500012D22E6BD21F02EB820293409E432E636F
:100D60000B790A88DB1F92B203EB83039A40036876
:100D70001D6B2A431A6311E0EE6A0D3A02EB820200
:100D800093409E43EE620B790A880D3B92B203EBCF
:100D900083039A400368DD6A2A43DA62164B0568CA
:100DA000144A9D4206D10D68122D03D1556845F4B1
:100DB0008005556005689D4218D10B68102B01D045
:100DC000112B13D1536843F40003536009681029B1
:100DD0000CD10A490A4A0968B1FBF2F101EB810121
:100DE000490000E0491E00910029FBD180F83C40F9
:100DF000002078BD0023014000200140CC000020ED
:100E000040420F000068C06C704770B504004FF09E
:100E1000000503D0206C002610B107E0012070BD52
:100E2000204600F01DF8666484F83C60206CC00623
:100E300010D4206C20F4885040F00200206420463A
:100E4000FFF776FE6664206C20F0020040F001009F
:100E5000206400E0012584F83C60284670BD000055
:100E600070B586B0044614216846FFF753FA1D4951
:100E70001B4E256800231B4A143903241A48B54227
:100E800011D1156845F480751560126802F48072FE
:100E900005920A6842F004020A60096801F0040140
:100EA0000591082113E0114EB54216D1156845F49D
:100EB00000751560126802F4007205920A6842F02B
:100EC00004020A60096801F0040105912021CDE9BE
:100ED00000140293694600F015F906B070BD0000D9
:100EE0000020014044380240000802400021014037
:100EF0002DE9F041044600680D4681684FF0000777
:100F000049050BD58068C00508D5206C40F020004D
:100F1000206484F83C700120BDE8F08100F0E0F925
:100F200006460FE0681C0DD025B100F0D9F9801BF2
:100F3000A84207D9206C40F00400206484F83C707B
:100F40000320E9E7206800688007EBD521686FF08F
:100F500012000860206C40F40070206420688168F2
:100F600011F0405F13D1217E89B9C16A11F4700F6D
:100F700002D0806840050AD4206C20F48070206480
:100F8000206CC00403D4206C40F0010020640020D9
:100F9000C2E7000018B50021009190F83C20012A1A
:100FA00007D0012280F83C2002689368DB0702D05A
:100FB00011E0022018BD936843F0010393602A4AB0
:100FC0002A4B1268B2FBF3F202EB420200E0521E1F
:100FD0000092002AFBD102689368DB0741D0036CC2
:100FE00040F20164A34343F48073036453685B05D8
:100FF00005D5036C23F4005343F480530364036C5E
:10100000DB0404D5436C23F00603436400E0416431
:1010100080F83C1016496FF022031360496800689D
:10102000CA06144906D088421BD1816811F0405F7E
:1010300013D016E08842F8D00F4A904203D1D1F87D
:101040000423D206F1D00D4A90420AD1D1F80413FC
:1010500001F01F011029E8D303E0816841F08041CD
:101060008160002018BD0000CC00002040420F002D
:1010700000230140002001400021014000220140E6
:1010800090F83C1001290CD0012180F83C10016837
:101090008A6822F001028A6001688968C90702D063
:1010A00007E002207047016C21F4885141F00101F2
:1010B0000164002180F83C100846704790F8351014
:1010C000022903D08021416501207047052180F865
:1010D00035100068016821F00101016000207047AF
:1010E00070B5044600F0FCF80546601C02D00448C8
:1010F0000078044400F0F4F8401BA042FAD370BD1D
:10110000C00000202DE9F84F00224FF00108032510
:101110004FF00F0E0B6808FA02F42340A3426ED181
:101120004E68012E05D0022E03D0112E01D0122EB2
:1011300012D186684FEA420C05FA0CF7BE43CF681D
:1011400007FA0CF7374387604668A6430C79C4F367
:101150000014944034434460C668570005FA07FC05
:101160008C6826EA0C06BC403443C4604C68022CF0
:1011700001D0122C13D1D40800EB8404A346D4F878
:10118000209054074FEAD46A0EFA0AF629EA0609B3
:101190000E6906FA0AF646EA0906CBF820600668E8
:1011A0000C7926EA0C0604F00304BC4034430460C6
:1011B0004C68E40065D5364C266846F480462660C7
:1011C000246822F0030604F480440094314C344433
:1011D000A446D4F808489607370F0EFA07F6B4432A
:1011E0002D4EB04201D1002624E02C4EB04201D158
:1011F00001261FE02A4EB04202D102261AE040E04A
:10120000284EB04201D1032614E0274EB04201D14E
:1012100004260FE0254EB04201D105260AE0244EF7
:10122000B04201D1062605E0224EB04201D1072688
:1012300000E00826BE402643CCF808681E4E3468FD
:101240004F689C43FF0300D51C4334601A4C241D97
:1012500026684F689E43BF0300D51E432660164E86
:10126000083634684F689C43FF0200D51C43346045
:10127000114E0C3634684F689C43BF0200D51C43A6
:101280003460521C102AFFF445AFBDE8F88F00000F
:101290004438024000300140000002400004024097
:1012A00000080240000C02400010024000140240FE
:1012B00000180240001C0240003C01400069084048
:1012C00000D001207047426931EA020200D10904CE
:1012D000816170470AB1816170470904FBE7000032
:1012E0000148806870470000C000002070B504000D
:1012F00025D094F83D00002520B984F83C502046C4
:1013000000F004FA242084F83D002068016821F0F0
:10131000010101602068016841F40041016020681A
:10132000016821F40041016000F0C8FB4D4A61688A
:10133000914201D84C4900E04C49884201D2012039
:1013400070BD4B492368B0FBF1F15E6826F03F06A3
:101350000E435E606368934206D94FF49673594317
:101360004FF47A73B1FBF3F12368491C1E6A26F02F
:101370003F06314319626168914210D84900401E0E
:10138000B0FBF1F2521CC2F30B02042A01D204207A
:1013900022E0B0FBF1F0401CC0F30B001CE0A2689F
:1013A000F2B301EBC10303EB0116431EB3FBF6F3EB
:1013B0005B1C43F480431B0549D092B301EBC1028F
:1013C00002EB0111401EB0FBF1F0401CC0F30B001A
:1013D00040F4804040F400402168CA694CF6FF7335
:1013E0009A431043C861D4E907100143206802689A
:1013F00022F0C00211430160D4E9030101432068D7
:10140000826848F2FF339A4311438160D4E90501B1
:1014100008432168CA6822F0FF021043C86001E057
:101420000EE016E02068016841F0010101602564CA
:10143000202084F83D00256384F83E50002070BDD4
:1014400001EB4106431EB3FBF6F35B1CB3E701203F
:10145000C2E701EB4101401EB0FBF1F0401CC0F3BC
:101460000B00B7E7A086010080841E0000093D0044
:1014700040420F002DE9FF4F81B089460446FFF737
:101480002FFF054694F83D004FF0010820287DD13C
:101490001923012250492046009501F011FA002835
:1014A00074D194F83C00012870D0012084F83C00ED
:1014B00020680168C90703D1016841F0010101609A
:1014C0002068016821F400610160242084F83D0057
:1014D000002626644148E0624FF0011B2027206867
:1014E000016841F480710160009500225946204650
:1014F000049B01F0E5F950B120680068C00502D5F1
:101500004FF400702064032005B0BDE8F08F21681F
:1015100009F0FE000861FFF7E3FE2168054648690F
:101520004969C0F34000C1F380214FF0A00A0FE0E9
:10153000FFF7D6FE411B0498814200D808B984F811
:101540003DA0216848694969C0F34000C1F380218A
:1015500094F83D20A02A02D008B90029E8D084F8E8
:101560003D7020684169C943890716D4016841F478
:1015700000710160206841698069192301221649C0
:101580002046009501F09CF9B8B900E021E084F80C
:101590003D7084F83C600020B6E7016841F40071BA
:1015A000016021686FF480604861192301220A49B3
:1015B0002046009501F084F908B10120A4E70398C2
:1015C00008F1010880458AD384F83D7084F83C60B6
:1015D000F3E7022098E70000020010000000FFFF80
:1015E0002DE9F84F1F4690468A460446DDF82890BC
:1015F000FFF776FE054694F83D0020287FD1192399
:10160000012240492046009501F05AF9002876D180
:1016100094F83C00012872D0012084F83C00206836
:101620000168C90703D1016841F001010160206828
:10163000016821F400610160212084F83D00102040
:1016400084F83E0000262664C4F824806785608DF7
:1016500020852D48E0622B464A465146204601F03F
:10166000BBF890B9206841698069009036E02A464D
:101670004946204601F0A3F950B1206C042804D15A
:101680002068016841F4007101600120BDE8F88F15
:10169000606A216800780861606A401C6062618D40
:1016A000491E6185218D491E89B2218522685369B1
:1016B000DB435B070BD451B100781061606A401CBA
:1016C0006062608D401E6085208D401E20852A4608
:1016D0004946204601F0CEF80028CED1208D0028C2
:1016E000C5D154F83D0B016841F400710160202020
:1016F00004F81E09E67766770020C7E7FFE70220B7
:10170000C4E70000020010000000FFFF10B586B023
:10171000044614216846FEF7FDFD144920688842FE
:1017200021D11348016841F0020101600068694657
:1017300000F0020005904FF44060009012200190EC
:101740000120029003200390042004900948FFF731
:10175000D9FC07481030016841F48001016000683D
:1017600000F48000059006B010BD00000058004055
:10177000303802400004024070B5040011D02168E6
:101780004CF6CC400860216845F255500860D4E919
:10179000000141602168A0688860FFF7A1FD05464F
:1017A00009E0012070BD00BFFFF79AFD401B302803
:1017B00001D9032070BD2068C0680028F4D12168D9
:1017C0004AF6AA200860002070BD00684AF6AA21E7
:1017D00001600020704700000248816802781144CF
:1017E00081607047C00000200B4810B5016841F4CB
:1017F00000710160016841F480610160016841F499
:1018000080710160032000F08DF8002000F006F8E0
:1018100000F03EF8002010BD003C024010B501462B
:1018200088B00022192000F05DF8192000F04CF873
:1018300013480024016841F400310160006805A9E3
:1018400000F400300690684600F018F900F046F900
:101850000C494000B0FBF1F10C480B4A491E0260F4
:1018600040F2E732C0E90324C0E9011400F09AFB1A
:1018700010B1012008B010BD044800F0AFFBF9E73B
:101880004438024040420F00004401400806002056
:101890000C4882B0016841F480410160006800F4A6
:1018A000804000900748001F016841F080510160AE
:1018B0000068002200F0805000900F21901E02B0BE
:1018C00000F010B844380240002809DB00F01F0285
:1018D000012191404009800000F1E020C0F8001192
:1018E00070470000F0B40E4B1B680C46C3F3022394
:1018F000C3F10705042D00D90425191D072901D2BC
:10190000002300E0DB1E012606FA05F1491E2140F6
:1019100099409E40761E16403143F0BC02F052B80A
:101920000CED00E0064900F0070208684FF6FF03DF
:10193000184040EA0220034A104308607047000044
:101940000CED00E00000FA052DE9F0470E46050019
:1019500065D0DFF81481D8F80000F7B200F00F006E
:10196000B04207D288F80070D8F8000000F00F00ED
:10197000B04254D128683D4C810712D5400703D5A9
:10198000206840F4E05020602878000703D52068E4
:1019900040F4604020602068A96820F0F00008430F
:1019A00020602878C0072DD03049686808390128A0
:1019B00012D0022813D0032811D009688907002902
:1019C0002DDA216821F0030101432160FFF788FC33
:1019D000814641F2883A0EE009688903EFE7096819
:1019E0008901ECE7FFF77CFCA0EB0901514502D926
:1019F0000320BDE8F0872068696800F00C00B0EBB8
:101A0000810FEFD1D8F80010404601F00F01B1422C
:101A100007D90770006800F00F00B04201D0012024
:101A2000E7E72878400705D52068E96820F4E0500A
:101A3000084320602878000706D52068296920F42B
:101A4000604040EAC100206000F058F82168084A70
:101A5000C1F30311515CC84006490860064800689C
:101A6000FFF7DCFE0020C4E7003C024008380240DB
:101A7000D0830008CC000020C40000200F220260A8
:101A80000C4A136803F003034360136803F0F00388
:101A90008360136803F4E053C36012684FF4E053AB
:101AA00003EAD20202610448006800F00F000860F7
:101AB0007047000008380240003C024004480549D5
:101AC00000680968044AC1F38221515CC84070472C
:101AD000CC00002008380240E08300080448054993
:101AE00000680968044AC1F34231515CC84070473C
:101AF000CC00002008380240E0830008154810B5EB
:101B0000006810F00C02144813D01449042A0FD0B6
:101B1000082A0ED10F4C241F2268236802F03F02CE
:101B20005B0207D52068C0F38810A0FB010106E026
:101B3000084610BD2168C1F38811A1FB00010023F4
:101B4000FEF79EFB2168C1F30141491C4900B0FB2F
:101B5000F1F010BD083802400024F40040787D0107
:101B60002DE9F84F04006ED02078DFF83C93C007D1
:101B7000A9F104054AD009F104000168C1F381010B
:101B8000012908D00068C0F3810002280AD1D9F8E1
:101B90000000400206D52868800337D56068002819
:101BA000E1D033E06068B0F5803F10D0B0F5A02FF1
:101BB000286810D020F480302860286820F4802025
:101BC00028606068A8B1FFF78BFB06460DE0286827
:101BD00040F48030F4E740F480202860F7E700BF4D
:101BE000FFF77EFB801B642873D828688003F7D535
:101BF0000CE0FFF775FB064605E000BFFFF770FB42
:101C0000801B6428F0D828688003F7D42078DFF898
:101C10009C8280074FF0000A3ED5A348001D016852
:101C200011F00C0F08D00068C0F3810002280BD11E
:101C3000D9F80000400207D42868800716D5E0686C
:101C4000012800D112E02BE1E068B8B10120C8F80A
:101C50000000FFF745FB064605E000BFFFF740FB2D
:101C6000801B0228C0D828688007F7D5286821691A
:101C700020F0F80040EAC10028600DE0C8F800A09C
:101C8000FFF72EFB064604E0FFF72AFB801B022825
:101C90001FD828688007F7D42078000722D5824E05
:101CA00083486169703671B101210160FFF718FB4B
:101CB000074604E0FFF714FBC01B022809D8306870
:101CC0008007F7D50EE0C0F800A0FFF709FB074634
:101CD00005E082E0FFF704FBC01B02287DD83068D6
:101CE0008007F7D42078400768D5DFF8BCB100271B
:101CF0000BF13C0BDBF80000C0000BD4DBF800104C
:101D000041F08051CBF80010DBF80000012700F013
:101D100080500090674E3068C00510D4306840F4A1
:101D200080703060FFF7DCFA009005E0FFF7D8FA2A
:101D30000099401A022850D83068C005F6D55A4E8E
:101D4000A0686C3601280FD00528306810D020F02C
:101D500001003060306820F004003060A068B8B145
:101D6000FFF7BEFA00900FE0306840F00100F4E7A2
:101D700040F004003060F7E7FFF7B2FA0099411A2B
:101D800041F28830814266D830688007F4D50EE091
:101D9000FFF7A6FA009007E0FFF7A2FA0099411AB0
:101DA00041F28830814256D830688007F4D42FB190
:101DB000DBF8001021F08051CBF80010A069C8B307
:101DC0003949091D0968C1F3810102294AD0022855
:101DD000504607D0C8F8600000E03CE0FFF780FA0A
:101DE00004463BE04746C8F86000FFF779FA06462C
:101DF00005E000BFFFF774FA801B02282BD8286883
:101E00008001F7D4D4E907010843A16A2A4A4908A6
:101E100002EB0141626A41EA8211084394F82C10F6
:101E200040EA0161C9F8001001203866FFF758FA4E
:101E3000044606E036E000BFFFF752FA001B022816
:101E400009D828688001F7D52CE000BFFFF748FAD1
:101E5000001B022802D90320BDE8F88F2868800102
:101E6000F4D41FE00128F7D0D9F80000E26900F4AB
:101E70008001914214D1226A00F03F0191420FD1BA
:101E800047F6C071626A0140914209D1A26A00F42A
:101E90004031914204D1E16A00F07060884201D083
:101EA0000120D9E70020D7E704380240000047426C
:101EB000800E4742007000400000FFFF70477047EF
:101EC00010B590F83C20012A22D0012280F83C2055
:101ED000CA688C6822F4407222434C6822F4806203
:101EE00022430C6822F4006222430C6922F48052DF
:101EF00022434C6922F400522243C969002322F490
:101F000080420A4301684A6480F83C30002010BDDA
:101F1000022010BD70B590F83C20012A32D0012477
:101F200080F83C40022280F83D2003685A689D6892
:101F300022F070060A6832435A60134B02689A42D4
:101F400014D0B2F1804F11D0104B9A420ED0104BEA
:101F50009A420BD00F4B9A4208D00F4B9A4205D0B1
:101F60000E4B9A4202D00E4B9A4204D1496825F09A
:101F700080031943916080F83D40002180F83C10B7
:101F8000084670BD022070BD000001400004004002
:101F900000080040000C00400004014000400140E7
:101FA0000018004010B5040003D094F83D0010B1B3
:101FB00007E0012010BD002084F83C00204600F01E
:101FC0000CF8022084F83D00211D206801F01EFA63
:101FD000012084F83D00002010BD70470168CA68E8
:101FE00042F00102CA600068816801F00701062919
:101FF00003D0016841F00101016000207047704783
:1020000070B50446006801694FF00005C9438907AF
:1020100015D4C168C943890711D4E91E01610120A3
:102020002077206880698007204602D0FFF7E7FF0D
:1020300004E000F0EDF8204600F0A8F925772068CC
:102040000169C943490717D4C168C943490713D473
:102050006FF004010161022020772068806910F48C
:10206000407F204602D0FFF7CAFF04E000F0D0F81E
:10207000204600F08BF9257720680169C9430907DC
:1020800016D4C168C943090712D46FF00801016171
:10209000042020772068C0698007204602D0FFF71F
:1020A000AEFF04E000F0B4F8204600F06FF92577A9
:1020B00020680169C943C90617D4C168C943C90664
:1020C00013D46FF010010161082020772068C069E7
:1020D00010F4407F204602D0FFF791FF04E000F0AB
:1020E00097F8204600F052F9257720680169C94326
:1020F000C90708D1C168C943C90704D1891E016154
:10210000204600F067F920680169C943090609D42F
:10211000C168C943090605D46FF0800101612046FA
:10212000FFF7CCFE20680169C943490609D4C1689C
:10213000C943490605D46FF040010161204600F013
:1021400053F920680169C94389060BD4C168C943A2
:10215000890607D46FF0200101612046BDE8704078
:10216000FFF7ADBE70BD000030B587B00446142146
:102170006846FEF7CFF824681F4D00221F4902234E
:102180001F48AC420ED10C6844F010040C60096882
:1021900001F0100105914FF428510091CDE9013271
:1021A000012125E0174DAC4212D1086840F0020031
:1021B000086008680093CDE9013200F00200CDE923
:1021C0000430694603921048FEF79CFF07B030BD0B
:1021D0000E4DAC42FAD10C6844F010040C60096852
:1021E00001F01001059120210091CDE90132032178
:1021F000CDE903216946E7E700000140303802409D
:102200000010024000040040000402400040014071
:10221000704770B5044690F83C000D4601280DD07B
:10222000012684F83C60022084F83D0042B1042A73
:1022300018D0082A2AD00C2A4DD139E0022070BDCE
:10224000206801F055F92068816941F00801816139
:102250002068816921F004018161206881692A690F
:10226000114311E0206801F073F92068816941F49D
:10227000006181612068816921F480618161206849
:1022800081692A6941EA0221816124E0206801F024
:1022900095F92068C16941F00801C1612068C169F0
:1022A00021F00401C1612068C1692A69114311E06C
:1022B000206801F0B7F92068C16941F40061C1618B
:1022C0002068C16921F48061C1612068C1692A69FF
:1022D00041EA0221C16184F83D60002084F83C009D
:1022E00070BD10B5040003D094F83D0010B107E0B4
:1022F000012010BD002084F83C00204600F00CF8BE
:10230000022084F83D00211D206801F07FF80120A3
:1023100084F83D00002010BD08B5184A016818482F
:10232000914211D1016841F0010101600068002271
:1023300000F00100009011461920FFF7D3FABDE824
:1023400008401920FFF7C0BA0E4A914209D10C4843
:10235000001F016841F002010160006800F0020006
:1023600009E0094A914207D1016841F480310160D6
:10237000006800F48030009008BD000000000140BB
:102380004438024000040040004001407047000013
:1023900010B504460068012201F09CF80B49206842
:1023A000884202D00A49884203D1416C41F400417D
:1023B00041642068816801F00701062903D00168A3
:1023C00041F001010160002010BD0000000001404B
:1023D0000004014000680349884201D1FFF7FCB9BD
:1023E00070470000004401407047704770B50268B4
:1023F00004461068D168536910F00F0F53D003F0F2
:10240000010501F490762E435FD0C20705D0CA05BE
:1024100003D5E26B42F00102E263420705D5DA0719
:1024200003D0E26B42F00202E263820705D5DA07CD
:1024300003D0E26B42F00402E263020707D501F029
:1024400020022A4303D0E26B42F00802E263E26B0F
:10245000002A34D0800604D5880602D5204601F033
:102460001FF920684069E16BC0F3801001F008019A
:102470000143204624D001F005F92068416949064E
:102480001AD5416921F040014161606BA0B11B493F
:102490000165606BFEF712FE002810D0606B016DC5
:1024A000BDE87040084783060FD58B060DD5204642
:1024B000BDE8704001F0F4B82046FFF796FF70BD0C
:1024C000FFF793FF0020E06370BD030606D50B06FF
:1024D00004D52046BDE8704001F0C2B94006F3D5EE
:1024E0004806F1D5D168204621F04001D160202175
:1024F00084F8391000F057F970BD000075360008F7
:1025000070B5040004D094F83900002510B106E03D
:10251000012070BD84F83850204600F023F82420B4
:1025200084F839002068C16821F40051C160204658
:1025300001F002F92068016921F4904101612068ED
:10254000416921F02A0141612068C16841F40051CC
:10255000C160E563202084F8390084F83A00002047
:1025600070BD0000F0B587B0044614216846FDF741
:10257000D1FE2A48284F2668002528491438C02251
:1025800002230324BE421FD10E6846F010060E60DF
:10259000096801F010010591016841F00201016034
:1025A0000068694600F0020005900720CDE903406D
:1025B0008DE82C001A48FEF7A5FD002208212520F1
:1025C000FFF790F9252023E0164DAE4222D10D6889
:1025D00045F020050D60096801F0200105910168B2
:1025E00041F0040101600068009200F004000590D1
:1025F0000120CDE901300820CDE9034069460A48B1
:10260000FEF780FD002205214720FFF76BF94720E8
:10261000FFF75AF907B0F0BD0010014044380240FE
:1026200000040240001401400008024090F83A30D3
:10263000202B22D1F9B1F2B190F83830012B1CD007
:1026400081628285C2850021C163222280F83A20FE
:1026500080F838100168CA6842F48072CA60016864
:102660004A6942F001024A610068C16841F02001F4
:10267000C1600020704701207047022070470000B1
:1026800070B50068144988421DD1144C144A0025C5
:10269000618821B900201554401C3228FBDB0F480B
:1026A000001D00780A2803D05054491C61800AE0BC
:1026B0000B4901F13200FDF759FE4FF480510948F2
:1026C000FEF701FE6580BDE8704004490122091D46
:1026D0000548FFF7ABBF0000001401401C000020BC
:1026E00030030020000C0240C80500202DE9F8430B
:1026F000044690F839001F4616460D46202850D152
:10270000B5B1AEB194F8380001284AD0012084F860
:1027100038004FF00008C4F83C80212084F83900CC
:10272000FEF7DEFDA6848146E68484F8388026E044
:102730000120BDE8F883E08C401EE084A0684B4691
:10274000B0F5805F4FF000024FF080012046009707
:1027500003D001F0B6F8E8B90DE001F0B2F8C8B95D
:1027600028882168C0F308004860206908B16D1C02
:1027700005E0AD1C03E0216815F8010B4860E08C12
:102780000028D8D14B46002240212046009701F076
:1027900098F808B10320CCE7202084F83900002005
:1027A000C7E70220C5E77047FEE701684A69D243E0
:1027B00052050FD46FF480624A61002140F8301F47
:1027C000202242738173026942F0040202610173A4
:1027D0000120704700207047F8B50446C06A1E46C5
:1027E0000D461746082807D0012805D010F5803F70
:1027F00002D0206B122804D12068016841F4807156
:102800000160134600224FF001112046009600F0AF
:1028100057F840B120680068C00502D54FF4007039
:1028200020640320F8BD2069B0F5804F0ED006204B
:10283000216800EAD51040F0F000086133463A46BE
:102840000B49204600F070F878B902E005F0FE0070
:1028500000E0E8B221680861054933463A46891F1D
:10286000204600F061F80028DCD00120F8BD00000F
:102870000800010070B516460D4604460DE02046DE
:10288000FFF793FF08B1012070BD681C05D0FEF76B
:1028900027FD801BA84207D835B120684069C04396
:1028A0004007ECD4002070BD002044F8300F2021F8
:1028B0006173A073216941F0200121612073E2E777
:1028C0002DE9F0471E4690460D460446C1F30747E2
:1028D000DDF8209008E0701C06D0FEF701FDA0EBAB
:1028E0000900B0420FD876B12068012F18D0806956
:1028F00025EA00000004000C14D000214145EAD074
:102900000020BDE8F087002044F8300F20216173DB
:10291000A073216941F02001216120730120F0E7BB
:102920004069E5E70121E9E72DE9F0479A4691463C
:102930000E46044600254FF02008C1F3074725E066
:1029400020684069C043400514D42068016841F400
:102950000071016021686FF480604861256384F82C
:102960003D8084F83E50206C40F00400206484F8E0
:102970003C501FE0B9F1FF3F08D0FEF7B1FCA0EBDF
:102980000A0149450CD8B9F1000F09D02068012F80
:1029900013D0806926EA00000004000C0BD0CFE7BA
:1029A00044F8305F84F80D80A573206940F0200062
:1029B000206125730120BDE8F0874069EAE770B522
:1029C00016460D4604460DE02046FFF7EEFE08B120
:1029D000012070BD681C05D0FEF782FC801BA84258
:1029E00007D835B120684069C0430006ECD4002008
:1029F00070BD002044F8300F20216173A07321695D
:102A000041F0200121612073E2E700000449082819
:102A100001D0002803D1C871202000F0DFB8704732
:102A20000500002010B5012000F0B2F80A20FEF7E2
:102A300057FB03480021C1700121817010BD0000C7
:102A40000500002010B5012000F0A2F84FF47A70C4
:102A5000FEF746FB022000F09BF80520FEF740FB46
:102A6000282000F095F80520FEF73AFB0C2000F036
:102A70008FF80520FEF734FB802000F089F8BDE8D0
:102A800010404FF4FA70FEF72BBB00002DE9F04721
:102A9000304D00260446EE7071B301292FD12E4926
:102AA000002000BF41F82040401C641C6428F9DB72
:102AB00089460868FDF745FC2871264FA878083735
:102AC000391811F8011C00F049F8A97807F1040839
:102AD00008EB010010F8014C1AE0641C00F07EF8CD
:102AE000E878401CC0B2E870142805D1A87801210C
:102AF000401C00F033F8EE7020780028EDD1BDE8DE
:102B0000F08700BF59F82400007800F067F8641CD3
:102B100028798442F6DBA978781810F8012C521E27
:102B200012F0FF0200F8012CE9D10122414400F823
:102B3000012C11F8012C521CD2B201F8012C2B7976
:102B40009A42DCD1142200F8012C01F8016C2E719C
:102B5000D5E70000050000204C0100200A4A9070D3
:102B6000421E032A0ED84A1E132A0BD8074A00EB2E
:102B7000800002EB8000084410F8150C40F0800043
:102B800000F006B87047000005000020A882000889
:102B900038B5104C627800EA020102EA0010E279CE
:102BA00011431043617104F11002A07141F004035C
:102BB0001370517040F004019170D07003F0DAF995
:102BC000C8200090042304F1100221780248FEF787
:102BD00007FD38BD05000020DC02002038B5124C8E
:102BE000627800EA020102EA0010E27911436171A1
:102BF000104341F0050304F11002A071137041F07D
:102C00000101517040F00501917040F00100D07059
:102C100003F0B0F9C8200090042304F110022178D9
:102C20000248FEF7DDFC38BD05000020DC02002074
:102C300070B53220FEF754FA03F09CF9054D4FF4BD
:102C40007A742346032229780348FEF713FC0028F0
:102C5000F7D170BD05000020DC0200207FB5002404
:102C600011480094019402940E490394C0E90014A1
:102C700084600461047680F820400C49C0E90A149D
:102C80000125C561C46080F830404561FEF7BDF89C
:102C90000D20CDE90005694602940348FEF70CF8C3
:102CA0007FBD000000200140D80300200100000F7C
:102CB0007FB5002411480094019402940E490394B6
:102CC000C0E9001484600461047680F820400C4957
:102CD000C0E90A140125C561C46080F8304045612F
:102CE000FEF793F80F20CDE90005694602940348EA
:102CF000FDF7E2FF7FBD000000210140200400201D
:102D00000100000F2DE9F04F87B014216846FDF750
:102D100001FB52480024016841F010010160016884
:102D200001F010010591016841F080010160016826
:102D300001F080010591016841F004010160016822
:102D400001F004010591016841F001010160016891
:102D500001F001010591016841F002010160016883
:102D600001F002010591016841F00801016000686D
:102D7000DFF8EC8000F008000590002215214046A5
:102D8000FEF7A8FADFF8DC90002255214846FEF74E
:102D9000A1FADFF8D4A04FF250070022394650467E
:102DA000FEF798FADFF8C4B0002228215846FEF753
:102DB00091FA152000900125CDE90154694640465D
:102DC0000394FEF79FF955200090CDE90154694620
:102DD00048460394FEF796F9AA20CDE90004694617
:102DE00048460294FEF78EF9EE03CDE90064694689
:102DF0001F480294FEF786F94FF42040CDE9000405
:102E0000694658460294FEF77DF90097CDE90154D2
:102E1000694650460394FEF775F9009669464846A0
:102E2000CDE90145FEF76EF9E8028DE8310069460B
:102E30004046FEF767F905208DE8310069465046A7
:102E4000FEF760F928200090CDE901546946584604
:102E50000394FEF757F907B0BDE8F08F3038024011
:102E60000008024000000240000C02400004024042
:102E70000010024010B592B000240F941C21684647
:102E80001094FDF747FA202107A8FDF743FA2048E0
:102E90001E49016040F28331C0E9011440F2E7317C
:102EA000C0E9031444618461FFF71BFA0F940FA972
:102EB00017481094FFF72EF86020CDE90004029423
:102EC0000394049405940022694611480694FFF780
:102ED000A0F9042269460E48FFF79BF908226946CB
:102EE0000B48FFF796F90794089409944FF40050A3
:102EF0000A94CDE90B4007A905480E94FEF7E0FFC0
:102F00000348FFF731F912B010BD00000000014086
:102F1000C804002010B58AB0002407941C2168461C
:102F20000894FDF7F7F912481049016040F2833127
:102F3000C0E9011440F2E731C0E903148461FFF7EE
:102F4000D0F9079407A90A480894FEF7E3FF602028
:102F5000CDE9000402940C22694605480494FFF769
:102F600058F90348FFF700F90AB010BD000400400B
:102F70000805002010B588B01C216846FDF7CAF985
:102F80000F480E490024016040F2B321C0E901144A
:102F9000FE21C0E903148461FFF7A3F96020CDE9A5
:102FA000000402940022694605480494FFF731F9B1
:102FB0000348FFF7D9F808B010BD000000400140F9
:102FC00048050020FEE770472DE9F0410025154E29
:102FD0002C46012720213046FEF770F90028F9D051
:102FE000512002F097FF20213046FEF767F90128B3
:102FF0000BD0C4F1070007FA00F08543641CE4B26B
:10300000082CE7D32846BDE8F08120213046FEF7A2
:1030100055F90128F9D0C4F1070007FA00F0C0B251
:103020000543EBE70000024030B585B00446FDF7EC
:1030300027FE284D002220212846FEF74BF91920B3
:10304000FEF74EF8012220212846FEF743F95A20C8
:1030500002F060FF202000900020019003200390E8
:1030600069462846FEF74EF820212846FEF726F945
:1030700070BB20212846FEF721F90028F9D0202135
:103080002846FEF71BF90128F9D0FFF79DFFA07035
:10309000FFF79AFFE070FFF797FF2070FFF794FFAC
:1030A0006070FFF791FF2071FDF7EAFD01222021FA
:1030B0002846FEF70FF9A078E17862780844217875
:1030C000114408442179884202D1002005B030BD66
:1030D0000120FBE70000024002F0C4FC0348FEF7B9
:1030E00074FB012003F0E4F8F6E70000BC040020C4
:1030F0001CB547F2305544F620662D4CFEF7F0F82B
:10310000A169401AA8421AD3FDF7A8FD28482C301F
:1031100003F022FE26482C3042780178CDE90012D7
:10312000C378827823A1284800F020FC264804F0C8
:1031300061F86420FDF7D4FFFEF7D2F8A061FEF736
:10314000CFF86169401AB0422ED303F033FE84ED0C
:10315000020A10EE100AFDF7FFFACDE900011A4845
:103160001AA20C210C3800F0EDFB17480C3804F0C3
:1031700041F86420FDF7B4FF1749A06888420EDBD0
:103180004FF4FA7003F074F8C820FDF7A9FF40F27D
:103190008A2003F06DF8C820FDF7A2FF01E003F0DC
:1031A0007FF8FEF79DF86061012003F081F8A5E744
:1031B0001C00002044485431312025642E25642011
:1031C00025642E2564000000A00300204741532001
:1031D00025342E326600000000002041012003F05B
:1031E00067F8FBE7294C41F27C5541F64C5641F219
:1031F000941700BF02F0E4F9FEF772F8616A401A12
:10320000A84210D303F09CFF014620484830FDF748
:10321000ADF81E48483003F0EDFF6420FDF760FF75
:10322000FEF75EF86062FEF75BF8216A401AB04272
:1032300010D303F09DFF014614485430FDF796F873
:103240001248543003F0D6FF6420FDF749FFFEF723
:1032500047F82062FEF744F8E169401AB84210D3FB
:1032600003F08EFD014609486A30FDF77FF80748F4
:103270006A3003F0BFFF6420FDF732FFFEF730F83D
:10328000E061012003F014F8B4E700001C00002006
:103290000A4C00BF03F084FF04F062FA03F0E8FD7B
:1032A00020700520FDF71CFF2078422801D102F094
:1032B0008BFA0F2002F0FCFFECE700001C0000205E
:1032C000114C40F6AC5500BFFEF70AF8A16A401A4F
:1032D000A84214D303F0DAFC2061642801D30BA2C6
:1032E00000E00CA214210D4800F02CFB0B4803F069
:1032F00081FF6420FDF7F4FEFDF7F2FFA0620F20CE
:1033000002F0D6FFE0E700001C00002048414C4CD2
:103310002031000048414C4C20300000C103002007
:1033200010B5502080F31188BFF34F8FBFF36F8F1C
:1033300004F018FE18B104494FF0805008600020D6
:1033400080F3118810BD000004ED00E030B593B0AB
:1033500030216846FCF7DEFF14210CA8FCF7DAFFE9
:103360001A480025016841F080510160006800F0B2
:10337000805011901648016841F480410160006856
:10338000102100F4804011900A2000900120CDE926
:10339000030105A9022481E83100082008905A2081
:1033A000CDE9090404200B906846FEF7D9FB0CA96F
:1033B0000F2081E831004FF4A0500F9010900221AF
:1033C0000CA8FEF7C1FA13B030BD0000403802402F
:1033D000007000400548016841F470010160034934
:1033E0004FF00060803908607047000088ED00E011
:1033F00010B50448FEF704FEBDE810400248FEF791
:10340000FFBD0000C804002008060020F0B50268D7
:10341000254C264D264E274F274B4FF0804CA0427F
:1034200009D0604507D0A84205D0B04203D0B842C9
:1034300001D0984204D122F0700E4A6842EA0E028E
:10344000A0421BD0604519D0A84217D0B04215D079
:10345000B84213D0984211D0184DA8420ED0184D42
:10346000A8420BD0174DA84208D0174DA84205D04E
:10347000164DA84202D0164DA84203D122F4407541
:10348000CA682A434D6922F080022A4302608A6892
:10349000C2620A688262A04201D0984201D10969E1
:1034A000016301214161F0BD0000014000040040C2
:1034B00000080040000C00400004014000400140B2
:1034C000004401400048014000180040001C00403A
:1034D0000020004010B501F01F030121046A99404B
:1034E0008C430462016A9A401143016210BD0000DE
:1034F000F0B5026A22F001020262036A426884693E
:10350000124E24F073050C682C4323F002058B68DF
:103510002B430D4DA84201D0B04205D123F008073E
:10352000CB683B4323F00403A84201D0B04205D14D
:103530004D6922F4407215438A692A4342608461CE
:10354000496841630362F0BD00000140000401408E
:10355000F0B5026A22F010020262026A43688469CE
:103560000D6824F4E64444EA05248D6822F0200224
:1035700042EA05120F4D104EA84201D0B04206D1CA
:10358000CF6822F0800242EA071222F04002A842ED
:1035900001D0B04207D14D6923F4406343EA85036B
:1035A0008D6943EA850343608461496881630262EF
:1035B000F0BD00000000014000040140F0B5026AC7
:1035C00022F480720262026A4368C46922F40072C3
:1035D00024F073050C68124E2C438D6842EA0522D4
:1035E0000E4DA84201D0B04206D1CF6822F400624D
:1035F00042EA072222F48062A84201D0B04207D1F9
:103600004D6923F4405343EA05138D6943EA0513DA
:103610004360C4614968C1630262F0BD00000140BB
:103620000004014030B5026A22F480520262046A4A
:103630004268C3690D6823F4E64343EA05238D68B5
:1036400024F4005444EA0534084DA84202D0084D41
:10365000A84204D14D6922F4804242EA85124260B8
:10366000C36149680164046230BD0000000001408C
:103670000004014010B5806B0021C185C184FEF7B4
:10368000B4FE10BD0168CA6822F49072CA60016875
:103690004A6922F001024A61202180F83A107047FD
:1036A00010B590F83A10222901D0022010BD81688F
:1036B000B1F5805F11D00169002901681FD0496808
:1036C00001F07F03816A4A1C82620B70C18D491E22
:1036D0000904090CC18518D02BE00269816A002A0F
:1036E0000268526805D0D2B20A80816A491C8162A0
:1036F000ECE7C2F308020A80816A891CF7E74A688E
:10370000816A4B1C83620A70E0E70168CA6822F094
:103710002002CA600168CA6822F48072CA60016827
:103720004A6922F001024A61202180F83A10FEF72E
:10373000A7FF002010BD00002DE9F04104460068FD
:103740000169E26821F44051114301612169A068D7
:10375000E26908436169114308432168CA6849F274
:103760000C639A430243CA6020684169A26921F44C
:10377000407111434161E069192764253226B0F593
:10378000004F354A354920684FF0000806D088427E
:1037900001D0904236D1FEF7A1F935E0884201D040
:1037A000904202D1FEF79AF901E0FEF787F96168CD
:1037B0004A18A0FB070148EB0803FCF761FD01462E
:1037C000B0FBF5F00201B1FBF5F06FF018035843C0
:1037D00001EB800006EBC000B0FBF5F000F0F80054
:1037E00002EB4002B1FBF5F0584301EB800006EB21
:1037F000C000B0FBF5F000F00700216810448860BD
:10380000BDE8F081FEF75AF961688B0F8A00A0FBD2
:103810000701FCF735FD0146B0FBF5F06FF018022B
:10382000504301EB800006EB0010B0FBF5F000F018
:10383000F002B1FBF5F002EB0012B1FBF5F06FF016
:103840001803584301EB800006EB0010B0FBF5F0C5
:1038500000F00F00D1E7000000140140001001400B
:1038600090F83910212901D0022070478168B1F504
:10387000805F016A0BD04A1C0262026809785160BD
:10388000C18C491E0904090CC1840ED017E00988B7
:103890000268C1F30801516001690029016A02D080
:1038A000491C0162ECE7891CFBE70168CA6822F049
:1038B0008002CA600068C16841F04001C160002018
:1038C00070472DE9F041984617460E460446069D7E
:1038D0001DE0681C1BD02DB1FDF702FDA0EB080018
:1038E000A84214D92068C16821F4D071C160206851
:1038F000416921F001014161202084F8390084F8F8
:103900003A00002084F838000320BDE8F0812068E8
:10391000006836EA000004D00020B842D9D0002068
:10392000F3E70120F9E700000148FEF75FBD000062
:10393000880500200148FEF759BD0000C805002099
:10394000FEE700000FB41CB50A46521ECDE9000286
:1039500007A9054B6A46069801F08AFA009A0021E9
:1039600011701CBC5DF814FB9F5500080FB4084B88
:1039700010B504A902AA039801F07AFA044602A934
:10398000002001F017FE204610BC5DF814FB00007B
:10399000B555000803B401984100009850EAC120D1
:1039A00018BF04204A0D18BF40F0010040F2FF721A
:1039B000B2EB515F08BF40F00200012808BF0520AC
:1039C00002B070470907090E002804DB00F1E0206F
:1039D00080F80014704700F00F0000F1E02080F83C
:1039E000141D70470000000070B5D94B00242DED68
:1039F000020B2DED108BDDE91010984205DA20F056
:103A000000429A4201D809D141B19DED100BBDECA5
:103A1000108B02B0BDE8704001F01EB9B0F5801FF8
:103A200026DA11430BD0002813DA012001F068F9DF
:103A3000BDEC108B02B0BDE8704001F021B902204E
:103A400001F05EF901F0F0F851EC100B81F000414B
:103A50009EE06FF035049FEDC00B53EC102B9DEDF5
:103A6000100B51EC100BFCF740FDCDE9100108469E
:103A700004EB2051C0F31304B948A1F2FF312044F4
:103A800000F4801080F07F6282F04052224301EB0C
:103A900020559FEDB50B119253EC102B9DED100BA3
:103AA00051EC100BFCF71BFD41EC180BA01CC0F3F4
:103AB00013009FEDAFDB9FEDB0EBB14E7E440328CA
:103AC0006CD296ED000B51EC180B53EC102BFCF75D
:103AD000F9FF1DD1002D01BF96ED000BBDEC108B41
:103AE00002B070BD2846FCF7E1FD41EC180B53EC29
:103AF0001D2BFCF7FAFC41EC190B53EC1E2B51EC7F
:103B0000180BFCF7F2FC53EC192BFCF747FC3FE0D9
:103B10009FED9D0B51EC180B53EC102BFCF7E5FCC3
:103B20009FED9B1B53EC112BFCF7DCFC41EC190BBC
:103B300053EC182B51EC180BFCF7D7FC53EC192B5A
:103B4000FCF7D3FC41EC190B002D04BF53EC192BEF
:103B500051EC180B1AD02846FCF7A8FD41EC1A0BC3
:103B600053EC1D2BFCF7C1FC53EC192BFCF7BAFCF2
:103B700053EC182BFCF7B3FC41EC180B53EC1E2B49
:103B800051EC1A0BFCF7B1FC53EC182BFCF7A7FC1B
:103B9000BDEC108B02B041EC100B70BD9FED7E0BA5
:103BA00051EC180B53EC102BFCF7F8FB41EC100B0D
:103BB00051EC180B53EC102BFCF709FD41EC190BE1
:103BC0002846FCF773FD41EC1B0B53EC192B51EC11
:103BD000190BFCF78AFC41EC1A0B714853EC1A2BB9
:103BE000261851EC1A0BFCF780FC41EC1F0B6D48BA
:103BF000C4F1510404F5D724B0EE4F0AF0EE6F0A79
:103C00000321784400F094FF53EC1F2B51EC100B70
:103C1000FCF76BFC41EC1C0B6348B0EE4F0AF0EE76
:103C20006F0A0421784400F083FF53EC1A2B51EC07
:103C3000100BFCF75AFC344353EC1C2BFCF7AEFB87
:103C400041EC1C0B002C4CDD9FED510B51EC180B83
:103C500053EC102BFCF749FC53EC182BFCF745FCFC
:103C600041EC1A0B55B353EC1D2B51EC1B0BFCF71D
:103C70003CFC41EC1D0B53EC1C2B51EC1A0BFCF7DC
:103C80008DFB53EC192BFCF730FC53EC1D2BFCF790
:103C900085FB53EC1A2BFCF725FC53EC182BFCF797
:103CA0001EFC41EC180B53EC1E2B51EC1B0BFCF7CC
:103CB0001CFC53EC182BFCF712FC69E753EC1C2B93
:103CC00051EC1A0BFCF76AFB53EC192BFCF70DFCBB
:103CD00053EC1A2BFCF706FC53EC182BFCF702FCF8
:103CE00056E735B353EC1D2B51EC1B0BFCF7FDFBDA
:103CF00041EC1A0B53EC1C2B51EC180BFCF7EFFBAF
:103D000053EC192BFCF7F1FB53EC1A2BFCF7E7FBF8
:103D100053EC182BFCF7E3FB41EC180B53EC1E2B78
:103D200051EC1B0BFCF7E1FB53EC182BFCF7D7FB1A
:103D30002EE753EC1C2B51EC180BFCF7D0FB53EC8B
:103D4000192BFCF7D2FB53EC182BFCF7CBFB1FE72E
:103D50000000F07F00000000000000000000504361
:103D6000645F090000000000000000000000F03F58
:103D7000763C7935EF39EA3D0000E0FE422EE63F21
:103D8000E849000000000000555555555555D53FF0
:103D9000000000000000E03F0000000000000040C4
:103DA00086EBF9FF6A480000604800000000000050
:103DB00070B5414A00252DED020B2DED048BDDE998
:103DC0000404944205DA24F00041914201D809D15B
:103DD00040B19DED040BBDEC048B02B0BDE870401A
:103DE00000F03ABFB4F5801F26DA08430BD0002C50
:103DF00013DA012000F084FFBDEC048B02B0BDE8B3
:103E0000704000F03DBF022000F07AFF00F00CFF90
:103E100051EC100B81F0004146E09FED290B6FF053
:103E2000350553EC102B9DED040B51EC100BFCF7FA
:103E30005CFBCDE904010C4605EB2450A0F2FF30F9
:103E4000C10F40F2FF32521A62F31F540844FCF7CC
:103E50002DFC05949DED040B41EC180B51EC100B5F
:103E600002F0B4F89FED181B53EC112BFCF73DFB4F
:103E70009FED170B41EC190B53EC102B51EC180B69
:103E8000FCF733FB53EC192BFCF788FA9FED120B70
:103E900041EC190B53EC102B51EC180BFCF725FBE4
:103EA00053EC192BFCF77AFABDEC048B02B041EC11
:103EB000100B70BD000000000000F07F000000004B
:103EC00000000000000050430EE526157BCBDB3FD1
:103ED000362BF111F3FE593D00609F501344D33F40
:103EE0002DE9F04D2DED040B2DED0E8B96B0DDE997
:103EF0002550279CDDF890A025F0004624F00048CE
:103F0000BAF1000F14BF0121002101EB4502FC4969
:103F100053184A1093422AD3002814BF01230023C8
:103F200003EB44030B44F7498B4220D358EA0001CA
:103F30009FEDF59B76D0DFF8D8B35D4503D1BAF19C
:103F4000000F05D188E0BAF1000F08BF002100D0B2
:103F5000012101EB450111F5001F08D8002814BF0D
:103F60000121002101EB440111F5001F0BD99DED4A
:103F7000261B9DED240B16B0BDEC0E8B04B0BDE8E6
:103F8000F04D00F073BE0027002DBCBFE14988450D
:103F900021DAE1498845A8BF02271CDAC3451ADCAB
:103FA000DE4901EB2851142908DDC1F1340220FA61
:103FB00002F101FA02F282420DD108E058B9C1F1D2
:103FC000140228FA02F101FA02F2424503D101F08B
:103FD0000101C1F1020756EA0A0124D1002C22DABC
:103FE000002D18BF022F01D0012F0AD0022000F0AF
:103FF00087FE16B0BDEC0E8B04B0BDE8F04D00F0AE
:1040000013BE022000F07CFE00F00EFE51EC100BFF
:1040100081F0004141EC100B16B0BDEC0E8B04B0EA
:10402000BDE8F08D18E09FEDBEAB9FEDBF8B002883
:1040300071D1B848804522D105F1804010F580103B
:1040400008BFBAF1000F07D0B3450ADC002CA8BFA7
:104050009DED260BE0DA0DE0B0EE490AF0EE690ABC
:10406000DAE7002C06DA9DED260B51EC100B81F0FF
:1040700000416FE0AE48784490ED000BCCE7D845A6
:104080004DD1002C48DA2EB186423AD1BAF1000F58
:1040900042D126E0BAF1000F13D0022000F030FE2A
:1040A00000F0FEFD8DED020B9DED240B8DED000B60
:1040B00010EE900A039961F31E0003909DED020B30
:1040C000AAE78DED02AB9DED240B1AEE901A10EECF
:1040D000900A8DED000B61F31E0003909DED020B25
:1040E0009AE78DED028B9DED240B18EE901A10EEE1
:1040F000900A8DED000B61F31E0003909DED020B05
:104100008AE709DA9DED240B51EC190B53EC102BC7
:10411000FCF75DFA1EE020E09DED240B7CE7864273
:104120001BDAB4F1804F0DD0A4F10050B0F1FF5074
:1041300013D1002D11DB9DED240B51EC100B03F07E
:10414000C3F807E09DED240B53EC102B51EC100B42
:1041500000F0C2BC41EC100B5EE79DED240B51EC6E
:10416000100B01F0FAFEBAF1000FCDE90E0142D1B9
:104170009FED710B46B3A6F1E040B0F17F600CD02B
:104180005E4538D1002D00DAA7B3022F0CBF012005
:104190004FF0FF30FCF78AFADCE7002D01DD002C40
:1041A0000DDA002D01DD002C1FDB002D16DA002CAE
:1041B00014DB012F08BF9FED620B3FF42DAFB0EE73
:1041C0004A0AF0EE6A0A27E7022F18BF002D0CD02A
:1041D000012F0AD1002DFFF61FAF06E0002DB8BF5A
:1041E000002C08DA012F3FF417AFB0EE480AF0EECA
:1041F000680A11E71BE0012000EBE57050EA0701B7
:1042000015D0791EB0EE498AF0EE698A084308BFDE
:104210009FED4D8B4E480025804570DD4D494E4841
:10422000884514DDB0420DDB002C19DB2FE00120A6
:1042300000F066FD16B0BDEC0E8B04B0BDE8F04D8D
:1042400000F01EBDB34502DC002C09DC1FE08642F5
:1042500002DA002C1BDA03E05E452BDD002C16DDB4
:10426000022000F04DFD00F01BFD8DED020B53EC24
:104270001A2B51EC180BFCF738F9CDE90001039922
:10428000019861F31E0003909DED020BC4E602202D
:1042900000F036FD00F014FD10EE901A18EE900AB2
:1042A0008DED020B8DED008B61F31E0003909DEDF3
:1042B000020BB1E69DED0E0B53EC192B51EC100BDC
:1042C000FCF70DF99FED260BCDE9080153EC102BFF
:1042D0009DED080B51EC100BFCF707F99FED221B2D
:1042E00053EC112BFCF7FEF89DED081B53EC112B42
:1042F000FCF7FBF89FED1E1B53EC112B3CE08CE010
:10430000FFFF1F00FFFF0F00000000000000F03F54
:104310000000F03F0000F07F0000404301FCFFFF81
:10432000000000000000F07F00000000000000001E
:104330002E4400000000000000000000000000808B
:10434000000000000000F0FF000000000000F0BFCF
:104350000000E0410000F043FFFFEF3F00000000DD
:10436000000000000000D03F555555555555D53F2C
:10437000000000000000E03FFCF7B4F89DED080BE2
:1043800041EC1A0B53EC102B51EC100BFCF7ADF871
:1043900053EC1A2BFCF7A9F841EC1A0B9FEDFE0B1E
:1043A00053EC102B9DED080B51EC100BFCF79DF816
:1043B00041EC1B0B9FEDFA0B51EC1A0B53EC102B3D
:1043C000FCF793F841EC1A0B9FEDF70B53EC102B15
:1043D0009DED080B51EC100BFCF787F853EC1A2BF2
:1043E000FCF77DF841EC1A0B51EC1B0B53EC1A2B2C
:1043F000FBF7D4FF0690CDE906519DED060B53EC7B
:104400001B2B51EC100BFCF76AF853EC1A2BFCF742
:1044100069F841EC100B00F0A1B90020B6F5801F3F
:104420000EDA9FEDE30B53EC102B9DED0E0B51ECD0
:10443000100BFCF75AF8CDE90E016FF034000E4670
:1044400000EB2650A0F2FF37C6F31300DA4940F024
:104450007F6646F040568842D8BF002408DDD74921
:104460008142C8BF012403DC0024A6F580167F1C0E
:10447000D348784400EBC4000F9690ED00CB9DED3F
:104480000E0B53EC1C2B51EC100BFCF728F89DED98
:104490000E0B41EC1B0B53EC1C2B51EC100BFBF7E0
:1044A0007DFF41EC100B51EC190B53EC102BFCF77A
:1044B0008EF841EC1D0B51EC1B0B53EC1D2BFCF744
:1044C00014F841EC1A0BBF488DED10AB78441095F1
:1044D00090ED000B4FF0005040EA660000EB844086
:1044E0008DED080B00F5002009909DED080B53ECB5
:1044F0001C2B51EC100BFBF7F2FF9DED0E1B53EC48
:10450000112BFBF7EFFF41EC100B53EC102B9DED43
:10451000100B51EC100BFBF7E8FF9DED080B41EC85
:104520001C0B53EC102B9DED100B51EC100BFBF7FB
:10453000DCFF53EC1B2BFBF7D5FF53EC1C2BFBF7DD
:10454000CEFF53EC1D2BFBF7D0FF41EC1C0B53ECC3
:104550001A2B51EC1A0BFBF7C8FF41EC1B0B9A48C6
:104560000621B0EE4B0AF0EE6B0A784400F0E0FA58
:10457000B0EE401AF0EE601AB0EE41DAF0EE61DA19
:1045800053EC1B2B51EC1B0BFBF7AFFF53EC1D2B1C
:10459000FBF7ABFF9DED100B41EC1B0B53EC1A2B03
:1045A00051EC100BFBF7FAFE53EC1C2BFBF79DFFB5
:1045B00053EC1B2BFBF7F2FE9DED100B41EC1B0B9C
:1045C00053EC102B51EC100BFBF78FFF41EC1D0B44
:1045D0009FED7FEB53EC1E2BFBF7E0FE53EC1B2B08
:1045E000FBF7DCFE0890CDE908519DED080B53EC7C
:1045F0001E2B51EC100BFBF772FF53EC1D2BFBF73E
:104600006EFF53EC1B2BFBF76DFF9DED080B41EC90
:104610001D0B53EC102B9DED100B51EC100BFBF709
:1046200064FF41EC1B0B53EC1A2B51EC1D0BFBF7F9
:104630005CFF9DED080B41EC1A0B53EC102B51EC79
:104640001C0BFBF752FF53EC1A2BFBF7A7FE41ECB8
:104650001A0B51EC1B0B53EC1A2BFBF79FFE0C9023
:10466000CDE90C519DED0C0B53EC1B2B51EC100BB9
:10467000FBF735FF53EC1A2BFBF734FF41EC1B0B18
:104680009FED550B53EC102B9DED0C0B51EC100BCB
:10469000FBF72BFF41EC1A0B9FED510B51EC1B0B61
:1046A00053EC102BFBF721FF41EC1B0B9FED4E0B46
:1046B00053EC102B9DED0C0B51EC100BFBF715FF81
:1046C00053EC1B2BFBF76AFE41EC100B4848784477
:1046D00000EBC40090ED001B51EC100B53EC112BC0
:1046E000FBF75CFE41EC1B0B3846FBF7DFFFCDE927
:1046F000080153EC1B2B51EC1A0BFBF74FFE41EC5E
:10470000100B3C48784400EBC40090ED00CB51EC1A
:10471000100B53EC1C2BFBF741FE9DED081B53ECDB
:10472000112BFBF73BFE0690CDE906519DED080BE2
:1047300053EC102B9DED060B51EC100BFBF7CFFE4D
:1047400053EC1C2BFBF7CBFE53EC1A2BFBF7C7FEED
:1047500053EC1B2BFBF7C6FE41EC100B9DED261B0B
:1047600053EC102B8DED001B00959DED260B51ECAD
:10477000100BFBF7BAFE9DED000B41EC1A0B53EC4E
:10478000102B9DED260B51EC100BFBF7A8FE9DEDB9
:10479000061B53EC112B2FE0000000604715F73F7C
:1047A000FE822B654715F73F44DF5DF80BAE543EA4
:1047B00000000000000040438E9803007AB60B0012
:1047C000723F0000D83F0000AA3E00000000000039
:1047D0000000000000000840000000E009C7EE3FB4
:1047E000FD033ADC09C7EE3FF5015B14E02F3EBE46
:1047F000363D0000F03C0000FBF777FE53EC1A2B2F
:10480000FBF7CCFD9DED060B41EC1A0B53EC102B86
:104810009DED000B51EC100BFBF767FECDE90C0191
:104820009DED0C0B51EC1A0B53EC102BFBF7B6FD66
:10483000CDE902010C46AA498C422FDB611A0843DC
:1048400018D19DED0C0B53EC102B9DED020B51EC90
:10485000100BFBF744FE41EC1B0B9FEDA30B51EC3F
:104860001A0B53EC102BFBF799FD53EC1B2BFCF7A9
:10487000ADF82DD2022000F043FA00F011FA10EE4C
:10488000901A18EE900A8DED020B8DED008B61F3FE
:104890001E0003909DED020BFFF7BEBB944A24F06F
:1048A0000041914214D39349214408437FF4EFAC73
:1048B0009DED0C0B53EC102B9DED020B51EC100BEE
:1048C000FBF70DFE53EC1A2BFCF780F87FF6DFACFC
:1048D00024F000408849894A002601EB2051824299
:1048E0002BDA481C4FF4801121FA00F02044844A4E
:1048F000C0F30A517A44A1F2FF3192ED000B814AD4
:104900008DED080BCA4020EA0202C0F3130040F408
:104910008010C1F1140120FA01F60992002CB8BFF1
:1049200076429DED080B53EC102B9DED0C0B51ECDA
:10493000100BFBF7D4FDCDE90C019DED0C0B51ECF8
:104940001A0B53EC102BFBF729FD9FED6F0B089012
:10495000CDE9085153EC102B9DED080B51EC100BD9
:10496000FBF7C3FD41EC1B0B9FED690B53EC102BC8
:104970009DED080B51EC100BFBF7B7FD9DED0C0BFB
:1049800041EC1C0B53EC102B9DED080B51EC100B64
:10499000FBF7A5FD53EC1A2BFBF7A4FD9FED5E1B67
:1049A00053EC112BFBF7A1FD53EC1C2BFBF7F6FC92
:1049B00041EC1A0B51EC1B0B53EC1A2BFBF7EEFCE2
:1049C000CDE902019DED020B53EC1B2B51EC100BBA
:1049D000FBF785FD53EC1A2BFBF784FD9DED020BD5
:1049E00041EC1A0B53EC102B51EC100BFBF77DFD37
:1049F000CDE908014A489DED080B0521784400F0F7
:104A000097F89DED081B51EC100B53EC112BFBF7A5
:104A10006CFD9DED021B53EC112BFBF763FDCDE903
:104A200006019DED020B53EC1A2B51EC100BFBF71A
:104A30005CFD53EC1A2BFBF7B1FC9FED3B0B41ECFB
:104A40001A0B53EC102B9DED060B51EC100BFBF7E2
:104A500046FD9DED060B41EC1B0B53EC102B9DED21
:104A6000020B51EC100BFBF740FD53EC1B2BFBF73B
:104A7000AEFD53EC1A2BFBF732FD9DED021B53EC00
:104A8000112BFBF72CFD53EC192BFBF72BFDCDE97C
:104A9000020101EB065001150029C8BF039015DC87
:104AA0009DED020B324651EC100BFBF75FFFFEF75A
:104AB00071FF042808BF00F003F932469DED020B98
:104AC00051EC100BFBF752FFCDE902019DED020BFB
:104AD00051EC180B53EC102BFBF707FDFFF73ABB1B
:104AE0000000904000000000FE822B654715973CB7
:104AF00000CC904000346F3F01FCFFFF0000E03F1E
:104B0000B03B0000FFFF0F0000000000432EE63F17
:104B1000396CA80C615C20BEEF39FAFE422EE63FEC
:104B2000483A0000000000000000000000000040C3
:104B300070B504462DED028B4D1E00EBC500B0EEA6
:104B4000408AF0EE608A90ED000B35F0060017D039
:104B500053EC182B51EC100BFBF7C7FC41EC100B7E
:104B60006D1E04EBC50090ED001B51EC100B53ECD7
:104B7000112BFBF713FC41EC100B35F00600E7D1CD
:104B8000022D36D0042D1CD0062D1CBFBDEC028B8F
:104B900070BD53EC182B51EC100BFBF7A6FC94EDF9
:104BA0000A1B53EC112BFBF7F9FB53EC182BFBF70B
:104BB0009CFC94ED081B53EC112BFBF7EFFB41EC35
:104BC000100B53EC182B51EC100BFBF78EFC94EDF3
:104BD000061B53EC112BFBF7E1FB53EC182BFBF7F7
:104BE00084FC94ED040B53EC102BFBF7D7FB41EC4A
:104BF000100B53EC182B51EC100BFBF776FC94EDDB
:104C0000021B53EC112BFBF7C9FB53EC182BFBF7E2
:104C10006CFC94ED001B53EC112BFBF7BFFBBDECC0
:104C2000028B41EC100B70BD9FED070B10B553ECE0
:104C3000102B9FED070B51EC100BFBF7C8FC41EC60
:104C4000100B10BD0000000000000000000000007C
:104C5000000000000000F03F10B553EC102B51ECA9
:104C6000100BFBF79BFB41EC100B10BD10B553EC88
:104C7000112B51EC100BFBF791FB41EC100B10BD0D
:104C80009FED050B10B553EC102B51EC100BFBF7FF
:104C90009EFC41EC100B10BD000000000000000065
:104CA0009FED050B10B553EC102B51EC100BFBF7DF
:104CB0001CFC41EC100B10BD000000000000007057
:104CC0009FED050B10B553EC102B51EC100BFBF7BF
:104CD0000CFC41EC100B10BD0000000000000010A7
:104CE00002E008C8121F08C1002AFAD170477047B5
:104CF000002001E001C1121F002AFBD17047000013
:104D00000149086070470000480100202DE9FF5F5D
:104D1000DDE90220010DDDF838B0024318D044F679
:104D20001050A1F2FF3141430D140F98012820D0FB
:104D3000A5EB0B00401C5FEA000A4FF00004474E51
:104D4000DFF81C91A046504616D5CAF1000728E0AE
:104D50000F98012443A2012808D0002100980F9B3E
:104D6000C0E90021C0E90243BDE8FF9F6FEA0B01E3
:104D7000F4E7CBF10000DEE7074612E0F80707D0C2
:104D80002246334640464946FBF7AFFB80468946FC
:104D90002246334610461946FBF7A7FB04460E464B
:104DA0007F10002FEAD1DDE90201BAF1000F42467F
:104DB0004B4602DAFBF799FB01E0FBF708FC0446DF
:104DC0000E460022284BFBF701FE03D84FF0FF30C0
:104DD000014607E00022254B20463146FBF7DEFA6C
:104DE000FBF7DBFD102409E0002C0ADB0A2200237C
:104DF000FBF746FA019B30321A55641E50EA010255
:104E0000F2D1641C019AC4F1110314440F9A012ACF
:104E100003D0012208430DD10AE0084304D000204A
:104E20004FF0110B0F9080E7A3EB0B056D1E0DE00B
:104E30005B4504DD4FF0000205F1010504E003DAF3
:104E40004FF00002A5F10105002AECD000980F995F
:104E5000C0E90231C0E9004586E7000000002440B7
:104E60000000F03F300000000000F0430000E03F91
:104E70002DE9FF4F95B09B468946064600250FE277
:104E8000252877D100242746F84A0121059400E01F
:104E9000044316F8013F203B01FA03F01042F7D11A
:104EA00030782A2811D06FF02F033078A0F130022B
:104EB000092A16D8059A44F0020402EB820203EB99
:104EC00042021044761C0590EFE759F8042B059236
:104ED000002A03DA504244F40054059044F00204DE
:104EE000761C30782E2816D116F8010F44F00404F1
:104EF0002A280DD06FF02F023078A0F13003092B53
:104F000009D807EB870302EB4303C718761CF3E7C6
:104F100059F8047B761C30786C280FD006DC4C28BE
:104F200017D068280DD06A2814D104E0742810D056
:104F30007A280FD10DE044F400140AE044F4801400
:104F400001E044F440147278824202D104F58014E6
:104F5000761C761C307866280BD013DC582877D066
:104F600009DC002875D04528F6D04628F4D047281B
:104F70001AD19DE118E0632835D0642879D06528DE
:104F800012D195E1702873D008DC6728F1D0692828
:104F90006FD06E280DD06F2806D1B5E073282CD0C5
:104FA000752875D0782874D05A46179990476D1C8B
:104FB00075E1C4F30250022809D003280DD0D9F8B6
:104FC000001004280DD00D6009F1040967E1D9F83B
:104FD0000010EA17C1E90052F6E7D9F800100D8079
:104FE000F2E70D70F0E719F8041B8DF800100020AF
:104FF0008DF80100EA46012003E059F804AB4FF0B8
:10500000FF3061074FF0000102D40DE008F101010B
:105010008846B9420FDA8045F8DB1AF808100029F3
:10502000F4D108E008F1010188468142FADB1AF860
:1050300008100029F6D105985B46A0EB0807214629
:105040003846179A00F094FA284400EB080507E068
:105050004DE029E10DE01AF8010B5A4617999047E7
:10506000B8F10108F7D25B4621463846179A13E19A
:1050700042E00A220092C4F302524FF0000A022AD0
:1050800008D059F804CB032A4FEAEC710AD00DE09E
:1050900029E02AE009F1070121F00702F2E802C144
:1050A000914609E00FFA8CFC4FEAEC71042A03D117
:1050B0004FFA8CFC4FEAEC71002907DA0A4600210E
:1050C000DCF1000C61EB02012D2202E0220504D587
:1050D0002B228DF80420012203E0E20701D02022D8
:1050E000F7E7904659E00A2102E010220DE0102176
:1050F0004FF0000A00910BE010224FF0000A44F03C
:1051000004040827009203E008224FF0000A0092EE
:10511000C4F30252022A05D059F804CB0021032A15
:1051200008D009E009F1070121F00702F2E802C105
:10513000914605E01FFA8CFC042A01D10CF0FF0C0B
:105140004FF00008220728D5702806D0009B83F076
:10515000100353EA0A0305D00EE040228DF8042024
:10516000012208E05CEA010206D030228DF804201A
:105170008DF8050002229046009B83F0080353EA55
:105180000A030AD15CEA010201D1620705D5302287
:105190008DF804204FF001087F1E582804D034A059
:1051A00003900EA802900DE036A0F9E75346604642
:1051B000009AFBF765F884460398825C0298401ECB
:1051C000029002705CEA0100F0D1029806A9081A68
:1051D00000F1200A600702D524F4803400E00127A2
:1051E000574502DDA7EB0A0000E0002000EB0A01B2
:1051F000009005984144401A0590E00306D45B46B0
:105200002146179A059800F0B3F90544002706E0F7
:1052100001A85A46C05D179990476D1C7F1C4745F1
:10522000F6DBE0030CD55B462146179A059800F0A3
:105230009FF9054404E030205A46179990476D1CA9
:105240000099481E00900029F5DC08E002980299B8
:105250005A460078491C0291179990476D1CBAF183
:105260000001AAF1010AF1DC65E100000928010052
:1052700030313233343536373839616263646566CC
:10528000000000003031323334353637383941428E
:10529000434445460000000000F058F90544761CE0
:1052A000307800287FF4ECAD19B02846BDE8F08FC7
:1052B000620700D4062709F1070222F0070CFCE878
:1052C0000223E14603F000485FEA080C02D00FF227
:1052D000702C0DE05FEA045C02D50FF2682C07E049
:1052E0005FEAC47C02D00FF2602C01E0AFF2700CD8
:1052F0004FF0FF3823F00043CDF850C065280CD0A4
:1053000006DC452809D046281DD047283DD13DE080
:10531000662818D067287ED138E00021112F01DBE4
:10532000112000E0781CCDE9000106A90EA8FFF7C6
:10533000EDFCDDE90F010E9A03910021009207F1C7
:10534000010A04914DE04FF000400097CDE90110B3
:1053500006A90EA8FFF7DAFCDDE90F0203920E9B07
:1053600011990022DDF80CA00093049211B9791C68
:1053700000EB010AB7EB0A0004D4C0F1FF3007F1DB
:10538000010A0490AAEB0700019044E0012F00DA23
:1053900001270021112F01DD112000E03846CDE961
:1053A000000106A90EA8FFF7B1FCDDE90F010E9A76
:1053B0000391002104910092BA4621070CD403996D
:1053C000514500DA8A46BAF1010F05DD009AAAF1CB
:1053D0000101515C302908D0B84202DA10F1040F03
:1053E00006DA0121CDE9011015E0AAF10101E9E792
:1053F000002805DC049901440491AAEB000102E0B5
:10540000411C514500DD8A460499401A401C019018
:105410004FF000400290200704D40198504501DB72
:10542000CDF8048000208DF84F0002980DF14F0751
:10543000B0F1004F25D02B200E9002984FF00208BB
:1054400000280CDA404202902D200E9007E00A213D
:105450000298FBF7B0F93031029007F8011DB8F15E
:105460000001A8F10108F2DC02980028EFD1791EB2
:105470000E980870307800F0200040F0450007F8E2
:10548000020D12A8C01B00F107081498007800B1A3
:10549000012000EB0A01019801EBE07105984144FD
:1054A000401A401E0590E00306D45B462146179A39
:1054B000059800F05DF805441498007818B15A4634
:1054C000179990476D1CE00324D55B462146179A37
:1054D000059800F04DF805441CE00498002807DB0F
:1054E000DDE90301884203DD0098405C179901E083
:1054F000179930205A469047049805F10105401C41
:1055000004900198401E019004D12E205A4617990C
:1055100090476D1CBAF10001AAF1010ADDDC05E03B
:1055200017F8010B5A46179990476D1CB8F1000106
:10553000A8F10108F4DC5B462146179A0598ABE612
:105540002D0000002B000000200000002DE9F0419C
:10555000044600251E461746880404D405E0394653
:105560002020B0476D1C641EF9D52846BDE8F081A7
:105570002DE9F041044600251E469046C80301D59A
:10558000302700E02027880404D505E0414638464E
:10559000B0476D1C641EF9D52846BDE8F0814A6805
:1055A000002A06D00A68531C0B6010704868401E21
:1055B000486070470A68531C0B6010707047000009
:1055C0002DE9FC41484D80212846FBF777FE08B1C4
:1055D000012700E0002702212846FBF76FFE002884
:1055E0002FD000264FF4FA7467B101213FA000F0DC
:1055F000FFFB2046FBF774FD3FA001F0FBFD2046BA
:10560000FBF76EFD4EB10021042001F025FE41A004
:1056100001F0F0FD2046FBF763FD01F0CBFB10EE3F
:10562000100A434EB0420EDC08212846FBF746FE26
:1056300048B100F035FE3FA001F0DCFD4FF47A7078
:105640004CE00126CEE740F2523000F011FE01217D
:105650003DA000F031FC01213BA000F0D9F9002170
:10566000032001F0F9FD3AA001F0C4FD0A20FBF788
:1056700037FD3CA001F0BEFD0A20FBF731FD3DA047
:1056800001F0B8FD0A20FBF72BFD3FA001F0B2FDB1
:1056900001F090FB10EE100AB04215DD01F08AFB1C
:1056A0003E4880ED020A10EE100AFBF755F8CDE9EE
:1056B00000013BA20C213D48FEF744F93B4801F0B4
:1056C00099FD2046FBF70CFD08212846FBF7F6FD67
:1056D000002807D136A001F08DFD2046BDE8FC4131
:1056E000FBF7FEBCBDE8FC81000002404C69766916
:1056F0006E67726F6F6D0000486F6D6573637265E2
:10570000656E20736D6172746C69676874204F4EAA
:1057100000000000486F6D6573637265656E2064FC
:105720007279696E67706F6C65204F4646000000A5
:1057300000002041486F6D6573637265656E20627D
:10574000656C6C204F4646004B69746368656E005B
:105750004B69746368656E2077696E646F77204F5C
:105760004E0000004B69746368656E2066616E20B0
:105770004F4E0000486F6D6573637265656E2067FC
:10578000617465204F4E0000486F6D6573637265EC
:10579000656E2062656C6C204F4E00001C0000207E
:1057A0004741532025342E32660000009403002028
:1057B000464C414D452031000249B1FBF0F080B22A
:1057C00070470000A08601002DE9F0410024FDF79C
:1057D00029F901210220FDF7C1F9002157A0FDF7A9
:1057E00055F906210320FDF7B9F95A4E01F040FBA7
:1057F00005460A20FBF774FC2DB13555002156A053
:10580000FDF744F9641C082CF0DB524908221839D2
:105810005048FAF7B4FD4FF4FA6680B1FDF702F98B
:1058200001210220FDF79AF900214CA0FDF72EF985
:1058300001210320FDF792F900214EA04FE0002442
:10584000FDF7F0F801210220FDF788F900214FA0B3
:10585000FDF71CF906210320FDF780F93D4F0837BD
:1058600001F006FB05460A20FBF73AFC2DB13D5539
:10587000002139A0FDF70AF9641C082CF0DB002494
:10588000FDF7D0F801210220FDF768F9002145A0BD
:10589000FDF7FCF806210320FDF760F92D4F1037C6
:1058A00001F0E6FA05460A20FBF71AFC2DB13D553A
:1058B000002129A0FDF7EAF8641C082CF0DB25493B
:1058C00008221031A1F10800FAF759FDE0B1FDF707
:1058D000A9F801210220FDF741F9002137A0FDF7C9
:1058E000D5F83046FBF7FCFBFDF79CF801210220C0
:1058F000FDF734F9002137A0FDF7C8F8BDE8F04105
:1059000006210320FDF72AB912490831A1F1200030
:10591000FAF72CFD0F4B34A2183B12213548FEF745
:1059200011F8344801F066FCFDF77CF801210220F3
:10593000FDF714F9002130A0D1E7000020454E54B6
:105940004552204F4C442050415353574F5244200E
:1059500000000000960000202A00000020202057B0
:10596000524F4E472050415353574F52442020200E
:10597000000000002020202020545259204147419F
:10598000494E2120202020200000000020454E54B8
:105990004552204E45572050415353574F524420B3
:1059A00000000000434F4E4649524D204E455720BF
:1059B00050415353574F524400000000504153533D
:1059C000574F5244204E4F54204D41544348454474
:1059D00000000000202020454E54455220504153E5
:1059E00053574F524420200070617373776F726475
:1059F00020257300AF030020202050415353574F00
:105A00005244204348414E474544202000000000B6
:105A100070B50C4606460EA1FAF79AFC0E4D40B141
:105A20000EA13046FAF794FC00280FD13CB10122B8
:105A300006E00CB1012200E00022042101E0002276
:105A400001212846BDE87040FBF744BC70BD000052
:105A5000426564726F6F6D00000802404B697463A9
:105A600068656E0070B501F0B9FB0E226FA1734836
:105A7000FAF785FC714C58B9E07B542802D04628CF
:105A800002D005E0012100E000216DA000F0B0F996
:105A90000D226EA16948FAF772FC58B9A07B542810
:105AA00002D0462802D005E0012100E000216BA0D1
:105AB00000F09EF90E226BA16048FAF760FC58B91D
:105AC000E07B542802D0462802D005E0012100E006
:105AD000002162A000F0F0F90B2266A15748FAF706
